{
  "_format": "hh-sol-artifact-1",
  "contractName": "Governor",
  "sourceName": "contracts/GovernorUpgradeable.sol",
  "abi": [
    {
      "inputs": [],
      "name": "Empty",
      "type": "error"
    },
    {
      "anonymous": false,
      "inputs": [
        {
          "indexed": false,
          "internalType": "uint8",
          "name": "version",
          "type": "uint8"
        }
      ],
      "name": "Initialized",
      "type": "event"
    },
    {
      "anonymous": false,
      "inputs": [
        {
          "indexed": false,
          "internalType": "uint256",
          "name": "proposalId",
          "type": "uint256"
        }
      ],
      "name": "ProposalCanceled",
      "type": "event"
    },
    {
      "anonymous": false,
      "inputs": [
        {
          "indexed": false,
          "internalType": "uint256",
          "name": "proposalId",
          "type": "uint256"
        },
        {
          "indexed": false,
          "internalType": "address",
          "name": "proposer",
          "type": "address"
        },
        {
          "indexed": false,
          "internalType": "address[]",
          "name": "targets",
          "type": "address[]"
        },
        {
          "indexed": false,
          "internalType": "uint256[]",
          "name": "values",
          "type": "uint256[]"
        },
        {
          "indexed": false,
          "internalType": "string[]",
          "name": "signatures",
          "type": "string[]"
        },
        {
          "indexed": false,
          "internalType": "bytes[]",
          "name": "calldatas",
          "type": "bytes[]"
        },
        {
          "indexed": false,
          "internalType": "uint256",
          "name": "startBlock",
          "type": "uint256"
        },
        {
          "indexed": false,
          "internalType": "uint256",
          "name": "endBlock",
          "type": "uint256"
        },
        {
          "indexed": false,
          "internalType": "string",
          "name": "description",
          "type": "string"
        }
      ],
      "name": "ProposalCreated",
      "type": "event"
    },
    {
      "anonymous": false,
      "inputs": [
        {
          "indexed": false,
          "internalType": "uint256",
          "name": "proposalId",
          "type": "uint256"
        }
      ],
      "name": "ProposalExecuted",
      "type": "event"
    },
    {
      "anonymous": false,
      "inputs": [
        {
          "indexed": false,
          "internalType": "uint256",
          "name": "oldProposalThreshold",
          "type": "uint256"
        },
        {
          "indexed": false,
          "internalType": "uint256",
          "name": "newProposalThreshold",
          "type": "uint256"
        }
      ],
      "name": "ProposalThresholdSet",
      "type": "event"
    },
    {
      "anonymous": false,
      "inputs": [
        {
          "indexed": false,
          "internalType": "uint256",
          "name": "oldQuorumNumerator",
          "type": "uint256"
        },
        {
          "indexed": false,
          "internalType": "uint256",
          "name": "newQuorumNumerator",
          "type": "uint256"
        }
      ],
      "name": "QuorumNumeratorUpdated",
      "type": "event"
    },
    {
      "anonymous": false,
      "inputs": [
        {
          "indexed": true,
          "internalType": "address",
          "name": "voter",
          "type": "address"
        },
        {
          "indexed": false,
          "internalType": "uint256",
          "name": "proposalId",
          "type": "uint256"
        },
        {
          "indexed": false,
          "internalType": "uint8",
          "name": "support",
          "type": "uint8"
        },
        {
          "indexed": false,
          "internalType": "uint256",
          "name": "weight",
          "type": "uint256"
        },
        {
          "indexed": false,
          "internalType": "string",
          "name": "reason",
          "type": "string"
        }
      ],
      "name": "VoteCast",
      "type": "event"
    },
    {
      "anonymous": false,
      "inputs": [
        {
          "indexed": true,
          "internalType": "address",
          "name": "voter",
          "type": "address"
        },
        {
          "indexed": false,
          "internalType": "uint256",
          "name": "proposalId",
          "type": "uint256"
        },
        {
          "indexed": false,
          "internalType": "uint8",
          "name": "support",
          "type": "uint8"
        },
        {
          "indexed": false,
          "internalType": "uint256",
          "name": "weight",
          "type": "uint256"
        },
        {
          "indexed": false,
          "internalType": "string",
          "name": "reason",
          "type": "string"
        },
        {
          "indexed": false,
          "internalType": "bytes",
          "name": "params",
          "type": "bytes"
        }
      ],
      "name": "VoteCastWithParams",
      "type": "event"
    },
    {
      "anonymous": false,
      "inputs": [
        {
          "indexed": false,
          "internalType": "uint256",
          "name": "oldVotingDelay",
          "type": "uint256"
        },
        {
          "indexed": false,
          "internalType": "uint256",
          "name": "newVotingDelay",
          "type": "uint256"
        }
      ],
      "name": "VotingDelaySet",
      "type": "event"
    },
    {
      "anonymous": false,
      "inputs": [
        {
          "indexed": false,
          "internalType": "uint256",
          "name": "oldVotingPeriod",
          "type": "uint256"
        },
        {
          "indexed": false,
          "internalType": "uint256",
          "name": "newVotingPeriod",
          "type": "uint256"
        }
      ],
      "name": "VotingPeriodSet",
      "type": "event"
    },
    {
      "inputs": [],
      "name": "BALLOT_TYPEHASH",
      "outputs": [
        {
          "internalType": "bytes32",
          "name": "",
          "type": "bytes32"
        }
      ],
      "stateMutability": "view",
      "type": "function"
    },
    {
      "inputs": [],
      "name": "COUNTING_MODE",
      "outputs": [
        {
          "internalType": "string",
          "name": "",
          "type": "string"
        }
      ],
      "stateMutability": "pure",
      "type": "function"
    },
    {
      "inputs": [],
      "name": "EXTENDED_BALLOT_TYPEHASH",
      "outputs": [
        {
          "internalType": "bytes32",
          "name": "",
          "type": "bytes32"
        }
      ],
      "stateMutability": "view",
      "type": "function"
    },
    {
      "inputs": [
        {
          "internalType": "uint256",
          "name": "proposalId",
          "type": "uint256"
        },
        {
          "internalType": "uint8",
          "name": "support",
          "type": "uint8"
        }
      ],
      "name": "castVote",
      "outputs": [
        {
          "internalType": "uint256",
          "name": "",
          "type": "uint256"
        }
      ],
      "stateMutability": "nonpayable",
      "type": "function"
    },
    {
      "inputs": [
        {
          "internalType": "uint256",
          "name": "proposalId",
          "type": "uint256"
        },
        {
          "internalType": "uint8",
          "name": "support",
          "type": "uint8"
        },
        {
          "internalType": "uint8",
          "name": "v",
          "type": "uint8"
        },
        {
          "internalType": "bytes32",
          "name": "r",
          "type": "bytes32"
        },
        {
          "internalType": "bytes32",
          "name": "s",
          "type": "bytes32"
        }
      ],
      "name": "castVoteBySig",
      "outputs": [
        {
          "internalType": "uint256",
          "name": "",
          "type": "uint256"
        }
      ],
      "stateMutability": "nonpayable",
      "type": "function"
    },
    {
      "inputs": [
        {
          "internalType": "uint256",
          "name": "proposalId",
          "type": "uint256"
        },
        {
          "internalType": "uint8",
          "name": "support",
          "type": "uint8"
        },
        {
          "internalType": "string",
          "name": "reason",
          "type": "string"
        }
      ],
      "name": "castVoteWithReason",
      "outputs": [
        {
          "internalType": "uint256",
          "name": "",
          "type": "uint256"
        }
      ],
      "stateMutability": "nonpayable",
      "type": "function"
    },
    {
      "inputs": [
        {
          "internalType": "uint256",
          "name": "proposalId",
          "type": "uint256"
        },
        {
          "internalType": "uint8",
          "name": "support",
          "type": "uint8"
        },
        {
          "internalType": "string",
          "name": "reason",
          "type": "string"
        },
        {
          "internalType": "bytes",
          "name": "params",
          "type": "bytes"
        }
      ],
      "name": "castVoteWithReasonAndParams",
      "outputs": [
        {
          "internalType": "uint256",
          "name": "",
          "type": "uint256"
        }
      ],
      "stateMutability": "nonpayable",
      "type": "function"
    },
    {
      "inputs": [
        {
          "internalType": "uint256",
          "name": "proposalId",
          "type": "uint256"
        },
        {
          "internalType": "uint8",
          "name": "support",
          "type": "uint8"
        },
        {
          "internalType": "string",
          "name": "reason",
          "type": "string"
        },
        {
          "internalType": "bytes",
          "name": "params",
          "type": "bytes"
        },
        {
          "internalType": "uint8",
          "name": "v",
          "type": "uint8"
        },
        {
          "internalType": "bytes32",
          "name": "r",
          "type": "bytes32"
        },
        {
          "internalType": "bytes32",
          "name": "s",
          "type": "bytes32"
        }
      ],
      "name": "castVoteWithReasonAndParamsBySig",
      "outputs": [
        {
          "internalType": "uint256",
          "name": "",
          "type": "uint256"
        }
      ],
      "stateMutability": "nonpayable",
      "type": "function"
    },
    {
      "inputs": [
        {
          "internalType": "address[]",
          "name": "targets",
          "type": "address[]"
        },
        {
          "internalType": "uint256[]",
          "name": "values",
          "type": "uint256[]"
        },
        {
          "internalType": "bytes[]",
          "name": "calldatas",
          "type": "bytes[]"
        },
        {
          "internalType": "bytes32",
          "name": "descriptionHash",
          "type": "bytes32"
        }
      ],
      "name": "execute",
      "outputs": [
        {
          "internalType": "uint256",
          "name": "",
          "type": "uint256"
        }
      ],
      "stateMutability": "payable",
      "type": "function"
    },
    {
      "inputs": [
        {
          "internalType": "address",
          "name": "account",
          "type": "address"
        },
        {
          "internalType": "uint256",
          "name": "blockNumber",
          "type": "uint256"
        }
      ],
      "name": "getVotes",
      "outputs": [
        {
          "internalType": "uint256",
          "name": "",
          "type": "uint256"
        }
      ],
      "stateMutability": "view",
      "type": "function"
    },
    {
      "inputs": [
        {
          "internalType": "address",
          "name": "account",
          "type": "address"
        },
        {
          "internalType": "uint256",
          "name": "blockNumber",
          "type": "uint256"
        },
        {
          "internalType": "bytes",
          "name": "params",
          "type": "bytes"
        }
      ],
      "name": "getVotesWithParams",
      "outputs": [
        {
          "internalType": "uint256",
          "name": "",
          "type": "uint256"
        }
      ],
      "stateMutability": "view",
      "type": "function"
    },
    {
      "inputs": [
        {
          "internalType": "uint256",
          "name": "proposalId",
          "type": "uint256"
        },
        {
          "internalType": "address",
          "name": "account",
          "type": "address"
        }
      ],
      "name": "hasVoted",
      "outputs": [
        {
          "internalType": "bool",
          "name": "",
          "type": "bool"
        }
      ],
      "stateMutability": "view",
      "type": "function"
    },
    {
      "inputs": [
        {
          "internalType": "address[]",
          "name": "targets",
          "type": "address[]"
        },
        {
          "internalType": "uint256[]",
          "name": "values",
          "type": "uint256[]"
        },
        {
          "internalType": "bytes[]",
          "name": "calldatas",
          "type": "bytes[]"
        },
        {
          "internalType": "bytes32",
          "name": "descriptionHash",
          "type": "bytes32"
        }
      ],
      "name": "hashProposal",
      "outputs": [
        {
          "internalType": "uint256",
          "name": "",
          "type": "uint256"
        }
      ],
      "stateMutability": "pure",
      "type": "function"
    },
    {
      "inputs": [
        {
          "internalType": "string",
          "name": "_name",
          "type": "string"
        },
        {
          "internalType": "contract IVotesUpgradeable",
          "name": "_token",
          "type": "address"
        },
        {
          "internalType": "uint256",
          "name": "_quorumPercentage",
          "type": "uint256"
        },
        {
          "internalType": "uint256",
          "name": "_votingPeriod",
          "type": "uint256"
        },
        {
          "internalType": "uint256",
          "name": "_votingDelay",
          "type": "uint256"
        },
        {
          "internalType": "uint256",
          "name": "_threshold",
          "type": "uint256"
        }
      ],
      "name": "initialize",
      "outputs": [],
      "stateMutability": "nonpayable",
      "type": "function"
    },
    {
      "inputs": [],
      "name": "name",
      "outputs": [
        {
          "internalType": "string",
          "name": "",
          "type": "string"
        }
      ],
      "stateMutability": "view",
      "type": "function"
    },
    {
      "inputs": [
        {
          "internalType": "address",
          "name": "",
          "type": "address"
        },
        {
          "internalType": "address",
          "name": "",
          "type": "address"
        },
        {
          "internalType": "uint256[]",
          "name": "",
          "type": "uint256[]"
        },
        {
          "internalType": "uint256[]",
          "name": "",
          "type": "uint256[]"
        },
        {
          "internalType": "bytes",
          "name": "",
          "type": "bytes"
        }
      ],
      "name": "onERC1155BatchReceived",
      "outputs": [
        {
          "internalType": "bytes4",
          "name": "",
          "type": "bytes4"
        }
      ],
      "stateMutability": "nonpayable",
      "type": "function"
    },
    {
      "inputs": [
        {
          "internalType": "address",
          "name": "",
          "type": "address"
        },
        {
          "internalType": "address",
          "name": "",
          "type": "address"
        },
        {
          "internalType": "uint256",
          "name": "",
          "type": "uint256"
        },
        {
          "internalType": "uint256",
          "name": "",
          "type": "uint256"
        },
        {
          "internalType": "bytes",
          "name": "",
          "type": "bytes"
        }
      ],
      "name": "onERC1155Received",
      "outputs": [
        {
          "internalType": "bytes4",
          "name": "",
          "type": "bytes4"
        }
      ],
      "stateMutability": "nonpayable",
      "type": "function"
    },
    {
      "inputs": [
        {
          "internalType": "address",
          "name": "",
          "type": "address"
        },
        {
          "internalType": "address",
          "name": "",
          "type": "address"
        },
        {
          "internalType": "uint256",
          "name": "",
          "type": "uint256"
        },
        {
          "internalType": "bytes",
          "name": "",
          "type": "bytes"
        }
      ],
      "name": "onERC721Received",
      "outputs": [
        {
          "internalType": "bytes4",
          "name": "",
          "type": "bytes4"
        }
      ],
      "stateMutability": "nonpayable",
      "type": "function"
    },
    {
      "inputs": [
        {
          "internalType": "uint256",
          "name": "proposalId",
          "type": "uint256"
        }
      ],
      "name": "proposalDeadline",
      "outputs": [
        {
          "internalType": "uint256",
          "name": "",
          "type": "uint256"
        }
      ],
      "stateMutability": "view",
      "type": "function"
    },
    {
      "inputs": [
        {
          "internalType": "uint256",
          "name": "proposalId",
          "type": "uint256"
        }
      ],
      "name": "proposalSnapshot",
      "outputs": [
        {
          "internalType": "uint256",
          "name": "",
          "type": "uint256"
        }
      ],
      "stateMutability": "view",
      "type": "function"
    },
    {
      "inputs": [],
      "name": "proposalThreshold",
      "outputs": [
        {
          "internalType": "uint256",
          "name": "",
          "type": "uint256"
        }
      ],
      "stateMutability": "view",
      "type": "function"
    },
    {
      "inputs": [
        {
          "internalType": "uint256",
          "name": "proposalId",
          "type": "uint256"
        }
      ],
      "name": "proposalVotes",
      "outputs": [
        {
          "internalType": "uint256",
          "name": "againstVotes",
          "type": "uint256"
        },
        {
          "internalType": "uint256",
          "name": "forVotes",
          "type": "uint256"
        },
        {
          "internalType": "uint256",
          "name": "abstainVotes",
          "type": "uint256"
        }
      ],
      "stateMutability": "view",
      "type": "function"
    },
    {
      "inputs": [
        {
          "internalType": "address[]",
          "name": "targets",
          "type": "address[]"
        },
        {
          "internalType": "uint256[]",
          "name": "values",
          "type": "uint256[]"
        },
        {
          "internalType": "bytes[]",
          "name": "calldatas",
          "type": "bytes[]"
        },
        {
          "internalType": "string",
          "name": "description",
          "type": "string"
        }
      ],
      "name": "propose",
      "outputs": [
        {
          "internalType": "uint256",
          "name": "",
          "type": "uint256"
        }
      ],
      "stateMutability": "nonpayable",
      "type": "function"
    },
    {
      "inputs": [
        {
          "internalType": "uint256",
          "name": "blockNumber",
          "type": "uint256"
        }
      ],
      "name": "quorum",
      "outputs": [
        {
          "internalType": "uint256",
          "name": "",
          "type": "uint256"
        }
      ],
      "stateMutability": "view",
      "type": "function"
    },
    {
      "inputs": [],
      "name": "quorumDenominator",
      "outputs": [
        {
          "internalType": "uint256",
          "name": "",
          "type": "uint256"
        }
      ],
      "stateMutability": "view",
      "type": "function"
    },
    {
      "inputs": [
        {
          "internalType": "uint256",
          "name": "blockNumber",
          "type": "uint256"
        }
      ],
      "name": "quorumNumerator",
      "outputs": [
        {
          "internalType": "uint256",
          "name": "",
          "type": "uint256"
        }
      ],
      "stateMutability": "view",
      "type": "function"
    },
    {
      "inputs": [],
      "name": "quorumNumerator",
      "outputs": [
        {
          "internalType": "uint256",
          "name": "",
          "type": "uint256"
        }
      ],
      "stateMutability": "view",
      "type": "function"
    },
    {
      "inputs": [
        {
          "internalType": "address",
          "name": "target",
          "type": "address"
        },
        {
          "internalType": "uint256",
          "name": "value",
          "type": "uint256"
        },
        {
          "internalType": "bytes",
          "name": "data",
          "type": "bytes"
        }
      ],
      "name": "relay",
      "outputs": [],
      "stateMutability": "nonpayable",
      "type": "function"
    },
    {
      "inputs": [
        {
          "internalType": "uint256",
          "name": "newProposalThreshold",
          "type": "uint256"
        }
      ],
      "name": "setProposalThreshold",
      "outputs": [],
      "stateMutability": "nonpayable",
      "type": "function"
    },
    {
      "inputs": [
        {
          "internalType": "uint256",
          "name": "newVotingDelay",
          "type": "uint256"
        }
      ],
      "name": "setVotingDelay",
      "outputs": [],
      "stateMutability": "nonpayable",
      "type": "function"
    },
    {
      "inputs": [
        {
          "internalType": "uint256",
          "name": "newVotingPeriod",
          "type": "uint256"
        }
      ],
      "name": "setVotingPeriod",
      "outputs": [],
      "stateMutability": "nonpayable",
      "type": "function"
    },
    {
      "inputs": [
        {
          "internalType": "uint256",
          "name": "proposalId",
          "type": "uint256"
        }
      ],
      "name": "state",
      "outputs": [
        {
          "internalType": "enum IGovernorUpgradeable.ProposalState",
          "name": "",
          "type": "uint8"
        }
      ],
      "stateMutability": "view",
      "type": "function"
    },
    {
      "inputs": [
        {
          "internalType": "bytes4",
          "name": "interfaceId",
          "type": "bytes4"
        }
      ],
      "name": "supportsInterface",
      "outputs": [
        {
          "internalType": "bool",
          "name": "",
          "type": "bool"
        }
      ],
      "stateMutability": "view",
      "type": "function"
    },
    {
      "inputs": [],
      "name": "token",
      "outputs": [
        {
          "internalType": "contract IVotesUpgradeable",
          "name": "",
          "type": "address"
        }
      ],
      "stateMutability": "view",
      "type": "function"
    },
    {
      "inputs": [
        {
          "internalType": "uint256",
          "name": "newQuorumNumerator",
          "type": "uint256"
        }
      ],
      "name": "updateQuorumNumerator",
      "outputs": [],
      "stateMutability": "nonpayable",
      "type": "function"
    },
    {
      "inputs": [],
      "name": "version",
      "outputs": [
        {
          "internalType": "string",
          "name": "",
          "type": "string"
        }
      ],
      "stateMutability": "view",
      "type": "function"
    },
    {
      "inputs": [],
      "name": "votingDelay",
      "outputs": [
        {
          "internalType": "uint256",
          "name": "",
          "type": "uint256"
        }
      ],
      "stateMutability": "view",
      "type": "function"
    },
    {
      "inputs": [],
      "name": "votingPeriod",
      "outputs": [
        {
          "internalType": "uint256",
          "name": "",
          "type": "uint256"
        }
      ],
      "stateMutability": "view",
      "type": "function"
    },
    {
      "stateMutability": "payable",
      "type": "receive"
    }
  ],
  "bytecode": "0x608060405234801561001057600080fd5b5061391d806100206000396000f3fe6080604052600436106102295760003560e01c806370b0f66011610123578063c28bc2fa116100ab578063eb9019d41161006f578063eb9019d41461072d578063ece40cc11461074d578063f23a6e611461076d578063f8ce560a14610799578063fc0c546a146107b957600080fd5b8063c28bc2fa14610653578063c59057e414610673578063dd4e2ba514610693578063deaaa7cc146106d9578063ea0217cf1461070d57600080fd5b80639a802a6d116100f25780639a802a6d146105bd578063a7713a70146105dd578063b58131b0146105f2578063bc197c8114610607578063c01f9e371461063357600080fd5b806370b0f660146105495780637b3c71d3146105695780637d5e81e21461058957806397c3d334146105a957600080fd5b80633932abb1116101b157806354fd4d501161017557806354fd4d501461049f57806356781388146104c95780635f398a14146104e957806360c4247f1461050957806361e640c51461052957600080fd5b80633932abb11461039c5780633bccf4fd146103b15780633e4f49e6146103d157806343859632146103fe578063544ffc9c1461044957600080fd5b806306fdde03116101f857806306fdde03146102cf578063150b7a02146102f15780632656227d146103355780632d63f693146103485780632fe3e2611461036857600080fd5b806301ffc9a71461023757806302a251a31461026c578063034201811461028f57806306f3f9e6146102af57600080fd5b3661023257005b005b600080fd5b34801561024357600080fd5b5061025761025236600461306b565b6107f2565b60405190151581526020015b60405180910390f35b34801561027857600080fd5b5061028161085f565b604051908152602001610263565b34801561029b57600080fd5b506102816102aa366004613231565b61086f565b3480156102bb57600080fd5b506102306102ca366004613102565b610967565b3480156102db57600080fd5b506102e46109b7565b60405161026391906134b2565b3480156102fd57600080fd5b5061031c61030c366004612d9c565b630a85bd0160e11b949350505050565b6040516001600160e01b03199091168152602001610263565b610281610343366004612f45565b610a49565b34801561035457600080fd5b50610281610363366004613102565b610b91565b34801561037457600080fd5b506102817fb3b3f3b703cd84ce352197dcff232b1b5d3cfb2025ce47cf04742d0651f1af8881565b3480156103a857600080fd5b50610281610bc8565b3480156103bd57600080fd5b506102816103cc3660046132d4565b610bd3565b3480156103dd57600080fd5b506103f16103ec366004613102565b610c49565b604051610263919061348a565b34801561040a57600080fd5b50610257610419366004613132565b600082815261012f602090815260408083206001600160a01b038516845260030190915290205460ff1692915050565b34801561045557600080fd5b50610484610464366004613102565b600090815261012f60205260409020805460018201546002909201549092565b60408051938452602084019290925290820152606001610263565b3480156104ab57600080fd5b506040805180820190915260018152603160f81b60208201526102e4565b3480156104d557600080fd5b506102816104e4366004613161565b610d56565b3480156104f557600080fd5b506102816105043660046131cb565b610d7f565b34801561051557600080fd5b50610281610524366004613102565b610dc9565b34801561053557600080fd5b50610230610544366004613093565b610e71565b34801561055557600080fd5b50610230610564366004613102565b610fae565b34801561057557600080fd5b5061028161058436600461318c565b610ff2565b34801561059557600080fd5b506102816105a4366004612fd0565b611044565b3480156105b557600080fd5b506064610281565b3480156105c957600080fd5b506102816105d8366004612eef565b611315565b3480156105e957600080fd5b5061028161132c565b3480156105fe57600080fd5b5061028161134b565b34801561061357600080fd5b5061031c610622366004612cf3565b63bc197c8160e01b95945050505050565b34801561063f57600080fd5b5061028161064e366004613102565b611356565b34801561065f57600080fd5b5061023061066e366004612e96565b611385565b34801561067f57600080fd5b5061028161068e366004612f45565b611409565b34801561069f57600080fd5b506040805180820190915260208082527f737570706f72743d627261766f2671756f72756d3d666f722c6162737461696e908201526102e4565b3480156106e557600080fd5b506102817f150214d74d59b7d1e90c73fc22ef3d991dd0a76b046543d4d80ab92d2a50328f81565b34801561071957600080fd5b50610230610728366004613102565b611443565b34801561073957600080fd5b50610281610748366004612e6b565b611487565b34801561075957600080fd5b50610230610768366004613102565b6114a8565b34801561077957600080fd5b5061031c610788366004612e05565b63f23a6e6160e01b95945050505050565b3480156107a557600080fd5b506102816107b4366004613102565b6114ec565b3480156107c557600080fd5b50610161546107da906001600160a01b031681565b6040516001600160a01b039091168152602001610263565b60006001600160e01b0319821663bf26d89760e01b148061082357506001600160e01b031982166379dd796f60e01b145b8061083e57506001600160e01b03198216630271189760e51b145b8061085957506301ffc9a760e01b6001600160e01b03198316145b92915050565b600061086a60fe5490565b905090565b60008061091361090b7fb3b3f3b703cd84ce352197dcff232b1b5d3cfb2025ce47cf04742d0651f1af888c8c8c8c6040516108ab929190613413565b60405180910390208b805190602001206040516020016108f0959493929190948552602085019390935260ff9190911660408401526060830152608082015260a00190565b604051602081830303815290604052805190602001206114f7565b868686611545565b90506109598a828b8b8b8080601f0160208091040260200160405190810160405280939291908181526020018383808284376000920191909152508d9250611563915050565b9a9950505050505050505050565b33301461098f5760405162461bcd60e51b8152600401610986906134c5565b60405180910390fd5b6109ab565b8061099f60cd6116d2565b146109a957610994565b505b6109b48161175e565b50565b606060cb80546109c690613800565b80601f01602080910402602001604051908101604052809291908181526020018280546109f290613800565b8015610a3f5780601f10610a1457610100808354040283529160200191610a3f565b820191906000526020600020905b815481529060010190602001808311610a2257829003601f168201915b5050505050905090565b600080610a5886868686611409565b90506000610a6582610c49565b90506004816007811115610a8957634e487b7160e01b600052602160045260246000fd5b1480610ab457506005816007811115610ab257634e487b7160e01b600052602160045260246000fd5b145b610b0a5760405162461bcd60e51b815260206004820152602160248201527f476f7665726e6f723a2070726f706f73616c206e6f74207375636365737366756044820152601b60fa1b6064820152608401610986565b600082815260cc602052604090819020600201805460ff19166001179055517f712ae1383f79ac853f8d882153778e0260ef8f03b504e2866e0593e04d2b291f90610b589084815260200190565b60405180910390a1610b6d82888888886118ae565b610b7a8288888888611957565b610b8782888888886118ae565b5095945050505050565b600081815260cc602090815260408083208151928301909152546001600160401b0316908190525b6001600160401b031692915050565b600061086a60fd5490565b604080517f150214d74d59b7d1e90c73fc22ef3d991dd0a76b046543d4d80ab92d2a50328f602082015290810186905260ff851660608201526000908190610c219061090b906080016108f0565b9050610c3e87828860405180602001604052806000815250611a77565b979650505050505050565b600081815260cc60205260408120600281015460ff1615610c6d5750600792915050565b6002810154610100900460ff1615610c885750600292915050565b6000610c9384610b91565b905080610ce25760405162461bcd60e51b815260206004820152601d60248201527f476f7665726e6f723a20756e6b6e6f776e2070726f706f73616c2069640000006044820152606401610986565b438110610cf3575060009392505050565b6000610cfe85611356565b9050438110610d1257506001949350505050565b610d1b85611aa3565b8015610d3b5750600085815261012f602052604090208054600190910154115b15610d4b57506004949350505050565b506003949350505050565b600080339050610d7784828560405180602001604052806000815250611a77565b949350505050565b600080339050610c3e87828888888080601f0160208091040260200160405190810160405280939291908181526020018383808284376000920191909152508a9250611563915050565b6101955460009080610de057505061019454919050565b6000610195610df06001846137b9565b81548110610e0e57634e487b7160e01b600052603260045260246000fd5b60009182526020918290206040805180820190915291015463ffffffff81168083526401000000009091046001600160e01b03169282019290925291508410610e6557602001516001600160e01b03169392505050565b610d7761019585611adb565b600054610100900460ff1615808015610e915750600054600160ff909116105b80610eab5750303b158015610eab575060005460ff166001145b610f0e5760405162461bcd60e51b815260206004820152602e60248201527f496e697469616c697a61626c653a20636f6e747261637420697320616c72656160448201526d191e481a5b9a5d1a585b1a5e995960921b6064820152608401610986565b6000805460ff191660011790558015610f31576000805461ff0019166101001790555b610f3a87611c06565b610f45838584611c5d565b610f4d611c94565b610f5686611cbd565b610f5f85611ced565b8015610fa5576000805461ff0019169055604051600181527f7f26b83ff96e1f2b6a682f133852f6798a09c465da95921460cefb38474024989060200160405180910390a15b50505050505050565b333014610fcd5760405162461bcd60e51b8152600401610986906134c5565b610fe9565b80610fdd60cd6116d2565b14610fe757610fd2565b505b6109b481611d1d565b60008033905061103a86828787878080601f016020809104026020016040519081016040528093929190818152602001838380828437600092019190915250611a7792505050565b9695505050505050565b600061104e61134b565b61105d336107486001436137b9565b10156110c55760405162461bcd60e51b815260206004820152603160248201527f476f7665726e6f723a2070726f706f73657220766f7465732062656c6f7720706044820152701c9bdc1bdcd85b081d1a1c995cda1bdb19607a1b6064820152608401610986565b60006110da8686868680519060200120611409565b905084518651146110fd5760405162461bcd60e51b8152600401610986906134fc565b835186511461111e5760405162461bcd60e51b8152600401610986906134fc565b600086511161116f5760405162461bcd60e51b815260206004820152601860248201527f476f7665726e6f723a20656d7074792070726f706f73616c00000000000000006044820152606401610986565b600081815260cc6020908152604091829020825191820190925281546001600160401b031690819052156111ef5760405162461bcd60e51b815260206004820152602160248201527f476f7665726e6f723a2070726f706f73616c20616c72656164792065786973746044820152607360f81b6064820152608401610986565b60006112016111fc610bc8565b611d5e565b61120a43611d5e565b611214919061374f565b905060006112236111fc61085f565b61122d908361374f565b835467ffffffffffffffff19166001600160401b038416178455905060018301805467ffffffffffffffff19166001600160401b0383161790557f7d84a6263ae0d98d3329bd7b46bb4e8d6f98cd35a7adb45c274c8b7fd5ebd5e084338b8b8d516001600160401b038111156112b357634e487b7160e01b600052604160045260246000fd5b6040519080825280602002602001820160405280156112e657816020015b60608152602001906001900390816112d15790505b508c88888e60405161130099989796959493929190613588565b60405180910390a15091979650505050505050565b6000611322848484611dca565b90505b9392505050565b61019554600090156113435761086a610195611e50565b506101945490565b600061086a60ff5490565b600081815260cc602090815260408083208151928301909152600101546001600160401b031690819052610bb9565b3330146113a45760405162461bcd60e51b8152600401610986906134c5565b6113c0565b806113b460cd6116d2565b146113be576113a9565b505b6114028483838080601f016020809104026020016040519081016040528093929190818152602001838380828437600092019190915250889250611eba915050565b5050505050565b600084848484604051602001611422949392919061343f565b60408051601f19818403018152919052805160209091012095945050505050565b3330146114625760405162461bcd60e51b8152600401610986906134c5565b61147e565b8061147260cd6116d2565b1461147c57611467565b505b6109b481611ee0565b600061132583836114a360408051602081019091526000815290565b611dca565b3330146114c75760405162461bcd60e51b8152600401610986906134c5565b6114e3565b806114d760cd6116d2565b146114e1576114cc565b505b6109b481611f81565b600061085982611fc2565b6000610859611504612060565b8360405161190160f01b6020820152602281018390526042810182905260009060620160405160208183030381529060405280519060200120905092915050565b6000806000611556878787876120db565b91509150610b87816121c8565b600085815260cc60205260408120600161157c88610c49565b600781111561159b57634e487b7160e01b600052602160045260246000fd5b146115f45760405162461bcd60e51b815260206004820152602360248201527f476f7665726e6f723a20766f7465206e6f742063757272656e746c792061637460448201526269766560e81b6064820152608401610986565b604080516020810190915281546001600160401b03169081905260009061161d90889086611dca565b905061162c88888884886123c9565b835161167e57866001600160a01b03167fb8e138887d0aa13bab447e82de9d5c1777041ecd21ca36ba824ff1e6c07ddda4898884896040516116719493929190613676565b60405180910390a2610c3e565b866001600160a01b03167fe2babfbac5889a709b63bb7f598b324e08bc5a4fb9ec647fb3cbc9ec07eb871289888489896040516116bf95949392919061369e565b60405180910390a2979650505050505050565b60006116f18254600f81810b810b600160801b909204810b900b131590565b1561170f57604051631ed9509560e11b815260040160405180910390fd5b508054600f90810b80820b820b600090815260018085016020526040822080549290558454920190920b6001600160801b03166fffffffffffffffffffffffffffffffff199091161790915590565b60648111156117e15760405162461bcd60e51b815260206004820152604360248201527f476f7665726e6f72566f74657351756f72756d4672616374696f6e3a2071756f60448201527f72756d4e756d657261746f72206f7665722071756f72756d44656e6f6d696e616064820152623a37b960e91b608482015260a401610986565b60006117eb61132c565b905080158015906117fd575061019554155b15611863576040805180820190915260008152610195906020810161182184612549565b6001600160e01b0390811690915282546001810184556000938452602093849020835194909301519091166401000000000263ffffffff909316929092179101555b61186f610195836125b2565b505060408051828152602081018490527f0553476bf02ef2726e8ce5ced78d63e26e602e4a2257b1f559418e24b4633997910160405180910390a15050565b611402565b845181101561194f57306001600160a01b03168582815181106118e657634e487b7160e01b600052603260045260246000fd5b60200260200101516001600160a01b0316141561193f5761193f83828151811061192057634e487b7160e01b600052603260045260246000fd5b60200260200101518051906020012060cd6126f990919063ffffffff16565b6119488161383b565b90506118b3565b505050505050565b600060405180606001604052806027815260200161389860279139905060005b8551811015610fa5576000808783815181106119a357634e487b7160e01b600052603260045260246000fd5b60200260200101516001600160a01b03168784815181106119d457634e487b7160e01b600052603260045260246000fd5b60200260200101518785815181106119fc57634e487b7160e01b600052603260045260246000fd5b6020026020010151604051611a119190613423565b60006040518083038185875af1925050503d8060008114611a4e576040519150601f19603f3d011682016040523d82523d6000602084013e611a53565b606091505b5091509150611a6382828661273f565b50505080611a709061383b565b9050611977565b6000611a9a85858585611a9560408051602081019091526000815290565b611563565b95945050505050565b600081815261012f6020526040812060028101546001820154611ac69190613737565b611ad26107b485610b91565b11159392505050565b6000438210611b2c5760405162461bcd60e51b815260206004820181905260248201527f436865636b706f696e74733a20626c6f636b206e6f7420796574206d696e65646044820152606401610986565b825460005b81811015611b9f576000611b458284612778565b905084866000018281548110611b6b57634e487b7160e01b600052603260045260246000fd5b60009182526020909120015463ffffffff161115611b8b57809250611b99565b611b96816001613737565b91505b50611b31565b8115611bf15784611bb16001846137b9565b81548110611bcf57634e487b7160e01b600052603260045260246000fd5b60009182526020909120015464010000000090046001600160e01b0316611bf4565b60005b6001600160e01b031695945050505050565b600054610100900460ff16611c2d5760405162461bcd60e51b81526004016109869061353d565b611c5481611c4f6040805180820190915260018152603160f81b602082015290565b612793565b6109b4816127d4565b600054610100900460ff16611c845760405162461bcd60e51b81526004016109869061353d565b611c8f838383612812565b505050565b600054610100900460ff16611cbb5760405162461bcd60e51b81526004016109869061353d565b565b600054610100900460ff16611ce45760405162461bcd60e51b81526004016109869061353d565b6109b481612854565b600054610100900460ff16611d145760405162461bcd60e51b81526004016109869061353d565b6109b48161289e565b60fd5460408051918252602082018390527fc565b045403dc03c2eea82b81a0465edad9e2e7fc4d97e11421c209da93d7a93910160405180910390a160fd55565b60006001600160401b03821115611dc65760405162461bcd60e51b815260206004820152602660248201527f53616665436173743a2076616c756520646f65736e27742066697420696e203660448201526534206269747360d01b6064820152608401610986565b5090565b61016154604051630748d63560e31b81526001600160a01b038581166004830152602482018590526000921690633a46b1a89060440160206040518083038186803b158015611e1857600080fd5b505afa158015611e2c573d6000803e3d6000fd5b505050506040513d601f19601f82011682018060405250810190611322919061311a565b80546000908015611ea75782611e676001836137b9565b81548110611e8557634e487b7160e01b600052603260045260246000fd5b60009182526020909120015464010000000090046001600160e01b0316611eaa565b60005b6001600160e01b03169392505050565b60606113228484846040518060600160405280602981526020016138bf602991396128c5565b60008111611f405760405162461bcd60e51b815260206004820152602760248201527f476f7665726e6f7253657474696e67733a20766f74696e6720706572696f6420604482015266746f6f206c6f7760c81b6064820152608401610986565b60fe5460408051918252602082018390527f7e3f7f0708a84de9203036abaa450dccc85ad5ff52f78c170f3edb55cf5e8828910160405180910390a160fe55565b60ff5460408051918252602082018390527fccb45da8d5717e6c4544694297c4ba5cf151d455c9bb0ed4fc7a38411bc05461910160405180910390a160ff55565b60006064611fcf83610dc9565b61016154604051632394e7a360e21b8152600481018690526001600160a01b0390911690638e539e8c9060240160206040518083038186803b15801561201457600080fd5b505afa158015612028573d6000803e3d6000fd5b505050506040513d601f19601f8201168201806040525081019061204c919061311a565b612056919061379a565b610859919061377a565b600061086a7f8b73c3c69bb8fe3d512ecc4cf759cc79239f7b179b0ffacaa9a75d522b39400f61208f60655490565b6066546040805160208101859052908101839052606081018290524660808201523060a082015260009060c0016040516020818303038152906040528051906020012090509392505050565b6000807f7fffffffffffffffffffffffffffffff5d576e7357a4501ddfe92f46681b20a083111561211257506000905060036121bf565b8460ff16601b1415801561212a57508460ff16601c14155b1561213b57506000905060046121bf565b6040805160008082526020820180845289905260ff881692820192909252606081018690526080810185905260019060a0016020604051602081039080840390855afa15801561218f573d6000803e3d6000fd5b5050604051601f1901519150506001600160a01b0381166121b8576000600192509250506121bf565b9150600090505b94509492505050565b60008160048111156121ea57634e487b7160e01b600052602160045260246000fd5b14156121f35750565b600181600481111561221557634e487b7160e01b600052602160045260246000fd5b14156122635760405162461bcd60e51b815260206004820152601860248201527f45434453413a20696e76616c6964207369676e617475726500000000000000006044820152606401610986565b600281600481111561228557634e487b7160e01b600052602160045260246000fd5b14156122d35760405162461bcd60e51b815260206004820152601f60248201527f45434453413a20696e76616c6964207369676e6174757265206c656e677468006044820152606401610986565b60038160048111156122f557634e487b7160e01b600052602160045260246000fd5b141561234e5760405162461bcd60e51b815260206004820152602260248201527f45434453413a20696e76616c6964207369676e6174757265202773272076616c604482015261756560f01b6064820152608401610986565b600481600481111561237057634e487b7160e01b600052602160045260246000fd5b14156109b45760405162461bcd60e51b815260206004820152602260248201527f45434453413a20696e76616c6964207369676e6174757265202776272076616c604482015261756560f01b6064820152608401610986565b600085815261012f602090815260408083206001600160a01b0388168452600381019092529091205460ff16156124525760405162461bcd60e51b815260206004820152602760248201527f476f7665726e6f72566f74696e6753696d706c653a20766f746520616c726561604482015266191e4818d85cdd60ca1b6064820152608401610986565b6001600160a01b03851660009081526003820160205260408120805460ff1916600117905560ff168460ff1614156124a357828160000160008282546124989190613737565b9091555061194f9050565b60ff8416600114156124c357828160010160008282546124989190613737565b60ff8416600214156124e357828160020160008282546124989190613737565b60405162461bcd60e51b815260206004820152603560248201527f476f7665726e6f72566f74696e6753696d706c653a20696e76616c69642076616044820152746c756520666f7220656e756d20566f74655479706560581b6064820152608401610986565b60006001600160e01b03821115611dc65760405162461bcd60e51b815260206004820152602760248201527f53616665436173743a2076616c756520646f65736e27742066697420696e20326044820152663234206269747360c81b6064820152608401610986565b81546000908190816125c386611e50565b905060008211801561260f575043866125dd6001856137b9565b815481106125fb57634e487b7160e01b600052603260045260246000fd5b60009182526020909120015463ffffffff16145b1561267d5761261d85612549565b866126296001856137b9565b8154811061264757634e487b7160e01b600052603260045260246000fd5b9060005260206000200160000160046101000a8154816001600160e01b0302191690836001600160e01b031602179055506126eb565b856000016040518060400160405280612695436129eb565b63ffffffff1681526020016126a988612549565b6001600160e01b0390811690915282546001810184556000938452602093849020835194909301519091166401000000000263ffffffff909316929092179101555b9250839150505b9250929050565b8154600160801b90819004600f90810b80820b820b6000908152600180870160205260409091209490945584549301900b6001600160801b039081169091029116179055565b6060831561274e575081611325565b82511561275e5782518084602001fd5b8160405162461bcd60e51b815260040161098691906134b2565b6000612787600284841861377a565b61132590848416613737565b600054610100900460ff166127ba5760405162461bcd60e51b81526004016109869061353d565b815160209283012081519190920120606591909155606655565b600054610100900460ff166127fb5760405162461bcd60e51b81526004016109869061353d565b805161280e9060cb906020840190612a50565b5050565b600054610100900460ff166128395760405162461bcd60e51b81526004016109869061353d565b61284283611d1d565b61284b82611ee0565b611c8f81611f81565b600054610100900460ff1661287b5760405162461bcd60e51b81526004016109869061353d565b61016180546001600160a01b0319166001600160a01b0392909216919091179055565b600054610100900460ff166109ab5760405162461bcd60e51b81526004016109869061353d565b6060824710156129265760405162461bcd60e51b815260206004820152602660248201527f416464726573733a20696e73756666696369656e742062616c616e636520666f6044820152651c8818d85b1b60d21b6064820152608401610986565b6001600160a01b0385163b61297d5760405162461bcd60e51b815260206004820152601d60248201527f416464726573733a2063616c6c20746f206e6f6e2d636f6e74726163740000006044820152606401610986565b600080866001600160a01b031685876040516129999190613423565b60006040518083038185875af1925050503d80600081146129d6576040519150601f19603f3d011682016040523d82523d6000602084013e6129db565b606091505b5091509150610c3e82828661273f565b600063ffffffff821115611dc65760405162461bcd60e51b815260206004820152602660248201527f53616665436173743a2076616c756520646f65736e27742066697420696e203360448201526532206269747360d01b6064820152608401610986565b828054612a5c90613800565b90600052602060002090601f016020900481019282612a7e5760008555612ac4565b82601f10612a9757805160ff1916838001178555612ac4565b82800160010185558215612ac4579182015b82811115612ac4578251825591602001919060010190612aa9565b50611dc69291505b80821115611dc65760008155600101612acc565b600082601f830112612af0578081fd5b81356020612b05612b0083613714565b6136e4565b80838252828201915082860187848660051b8901011115612b24578586fd5b855b85811015612b4b578135612b3981613882565b84529284019290840190600101612b26565b5090979650505050505050565b600082601f830112612b68578081fd5b81356020612b78612b0083613714565b80838252828201915082860187848660051b8901011115612b97578586fd5b855b85811015612b4b5781356001600160401b03811115612bb6578788fd5b612bc48a87838c0101612c73565b8552509284019290840190600101612b99565b600082601f830112612be7578081fd5b81356020612bf7612b0083613714565b80838252828201915082860187848660051b8901011115612c16578586fd5b855b85811015612b4b57813584529284019290840190600101612c18565b60008083601f840112612c45578182fd5b5081356001600160401b03811115612c5b578182fd5b6020830191508360208285010111156126f257600080fd5b600082601f830112612c83578081fd5b81356001600160401b03811115612c9c57612c9c61386c565b612caf601f8201601f19166020016136e4565b818152846020838601011115612cc3578283fd5b816020850160208301379081016020019190915292915050565b803560ff81168114612cee57600080fd5b919050565b600080600080600060a08688031215612d0a578081fd5b8535612d1581613882565b94506020860135612d2581613882565b935060408601356001600160401b0380821115612d40578283fd5b612d4c89838a01612bd7565b94506060880135915080821115612d61578283fd5b612d6d89838a01612bd7565b93506080880135915080821115612d82578283fd5b50612d8f88828901612c73565b9150509295509295909350565b60008060008060808587031215612db1578384fd5b8435612dbc81613882565b93506020850135612dcc81613882565b92506040850135915060608501356001600160401b03811115612ded578182fd5b612df987828801612c73565b91505092959194509250565b600080600080600060a08688031215612e1c578081fd5b8535612e2781613882565b94506020860135612e3781613882565b9350604086013592506060860135915060808601356001600160401b03811115612e5f578182fd5b612d8f88828901612c73565b60008060408385031215612e7d578182fd5b8235612e8881613882565b946020939093013593505050565b60008060008060608587031215612eab578182fd5b8435612eb681613882565b93506020850135925060408501356001600160401b03811115612ed7578283fd5b612ee387828801612c34565b95989497509550505050565b600080600060608486031215612f03578081fd5b8335612f0e81613882565b92506020840135915060408401356001600160401b03811115612f2f578182fd5b612f3b86828701612c73565b9150509250925092565b60008060008060808587031215612f5a578182fd5b84356001600160401b0380821115612f70578384fd5b612f7c88838901612ae0565b95506020870135915080821115612f91578384fd5b612f9d88838901612bd7565b94506040870135915080821115612fb2578384fd5b50612fbf87828801612b58565b949793965093946060013593505050565b60008060008060808587031215612fe5578182fd5b84356001600160401b0380821115612ffb578384fd5b61300788838901612ae0565b9550602087013591508082111561301c578384fd5b61302888838901612bd7565b9450604087013591508082111561303d578384fd5b61304988838901612b58565b9350606087013591508082111561305e578283fd5b50612df987828801612c73565b60006020828403121561307c578081fd5b81356001600160e01b031981168114611325578182fd5b60008060008060008060c087890312156130ab578384fd5b86356001600160401b038111156130c0578485fd5b6130cc89828a01612c73565b96505060208701356130dd81613882565b95989597505050506040840135936060810135936080820135935060a0909101359150565b600060208284031215613113578081fd5b5035919050565b60006020828403121561312b578081fd5b5051919050565b60008060408385031215613144578182fd5b82359150602083013561315681613882565b809150509250929050565b60008060408385031215613173578182fd5b8235915061318360208401612cdd565b90509250929050565b600080600080606085870312156131a1578182fd5b843593506131b160208601612cdd565b925060408501356001600160401b03811115612ed7578283fd5b6000806000806000608086880312156131e2578283fd5b853594506131f260208701612cdd565b935060408601356001600160401b038082111561320d578485fd5b61321989838a01612c34565b90955093506060880135915080821115612d82578283fd5b60008060008060008060008060e0898b03121561324c578586fd5b8835975061325c60208a01612cdd565b965060408901356001600160401b0380821115613277578788fd5b6132838c838d01612c34565b909850965060608b013591508082111561329b578384fd5b506132a88b828c01612c73565b9450506132b760808a01612cdd565b925060a0890135915060c089013590509295985092959890939650565b600080600080600060a086880312156132eb578283fd5b853594506132fb60208701612cdd565b935061330960408701612cdd565b94979396509394606081013594506080013592915050565b6000815180845260208085019450808401835b838110156133595781516001600160a01b031687529582019590820190600101613334565b509495945050505050565b600081518084526020808501808196508360051b81019150828601855b858110156133ab5782840389526133998483516133e7565b98850198935090840190600101613381565b5091979650505050505050565b6000815180845260208085019450808401835b83811015613359578151875295820195908201906001016133cb565b600081518084526133ff8160208601602086016137d0565b601f01601f19169290920160200192915050565b8183823760009101908152919050565b600082516134358184602087016137d0565b9190910192915050565b6080815260006134526080830187613321565b828103602084015261346481876133b8565b905082810360408401526134788186613364565b91505082606083015295945050505050565b60208101600883106134ac57634e487b7160e01b600052602160045260246000fd5b91905290565b60208152600061132560208301846133e7565b60208082526018908201527f476f7665726e6f723a206f6e6c79476f7665726e616e63650000000000000000604082015260600190565b60208082526021908201527f476f7665726e6f723a20696e76616c69642070726f706f73616c206c656e67746040820152600d60fb1b606082015260800190565b6020808252602b908201527f496e697469616c697a61626c653a20636f6e7472616374206973206e6f74206960408201526a6e697469616c697a696e6760a81b606082015260800190565b60006101208b8352602060018060a01b038c16818501528160408501526135b18285018c613321565b915083820360608501526135c5828b6133b8565b915083820360808501528189518084528284019150828160051b850101838c01865b8381101561361557601f198784030185526136038383516133e7565b948601949250908501906001016135e7565b505086810360a0880152613629818c613364565b94505050505061364460c08401876001600160401b03169052565b6001600160401b03851660e084015282810361010084015261366681856133e7565b9c9b505050505050505050505050565b84815260ff8416602082015282604082015260806060820152600061103a60808301846133e7565b85815260ff8516602082015283604082015260a0606082015260006136c660a08301856133e7565b82810360808401526136d881856133e7565b98975050505050505050565b604051601f8201601f191681016001600160401b038111828210171561370c5761370c61386c565b604052919050565b60006001600160401b0382111561372d5761372d61386c565b5060051b60200190565b6000821982111561374a5761374a613856565b500190565b60006001600160401b0380831681851680830382111561377157613771613856565b01949350505050565b60008261379557634e487b7160e01b81526012600452602481fd5b500490565b60008160001904831182151516156137b4576137b4613856565b500290565b6000828210156137cb576137cb613856565b500390565b60005b838110156137eb5781810151838201526020016137d3565b838111156137fa576000848401525b50505050565b600181811c9082168061381457607f821691505b6020821081141561383557634e487b7160e01b600052602260045260246000fd5b50919050565b600060001982141561384f5761384f613856565b5060010190565b634e487b7160e01b600052601160045260246000fd5b634e487b7160e01b600052604160045260246000fd5b6001600160a01b03811681146109b457600080fdfe476f7665726e6f723a2063616c6c20726576657274656420776974686f7574206d657373616765416464726573733a206c6f772d6c6576656c2063616c6c20776974682076616c7565206661696c6564a2646970667358221220388d6ed16f78ab48f588df7766f54bca23c8c232e26621323f1f019a5da99d2464736f6c63430008040033",
  "linkReferences": {},
  "deployedLinkReferences": {}
}