{
  "_format": "hh-sol-artifact-1",
  "contractName": "Reputation",
  "sourceName": "contracts/ReputationUpgradeable.sol",
  "abi": [
    {
      "anonymous": false,
      "inputs": [
        {
          "indexed": true,
          "internalType": "address",
          "name": "owner",
          "type": "address"
        },
        {
          "indexed": true,
          "internalType": "address",
          "name": "spender",
          "type": "address"
        },
        {
          "indexed": false,
          "internalType": "uint256",
          "name": "value",
          "type": "uint256"
        }
      ],
      "name": "Approval",
      "type": "event"
    },
    {
      "anonymous": false,
      "inputs": [
        {
          "indexed": true,
          "internalType": "address",
          "name": "delegator",
          "type": "address"
        },
        {
          "indexed": true,
          "internalType": "address",
          "name": "fromDelegate",
          "type": "address"
        },
        {
          "indexed": true,
          "internalType": "address",
          "name": "toDelegate",
          "type": "address"
        }
      ],
      "name": "DelegateChanged",
      "type": "event"
    },
    {
      "anonymous": false,
      "inputs": [
        {
          "indexed": true,
          "internalType": "address",
          "name": "delegate",
          "type": "address"
        },
        {
          "indexed": false,
          "internalType": "uint256",
          "name": "previousBalance",
          "type": "uint256"
        },
        {
          "indexed": false,
          "internalType": "uint256",
          "name": "newBalance",
          "type": "uint256"
        }
      ],
      "name": "DelegateVotesChanged",
      "type": "event"
    },
    {
      "anonymous": false,
      "inputs": [
        {
          "indexed": false,
          "internalType": "uint8",
          "name": "version",
          "type": "uint8"
        }
      ],
      "name": "Initialized",
      "type": "event"
    },
    {
      "anonymous": false,
      "inputs": [
        {
          "indexed": false,
          "internalType": "address",
          "name": "spender",
          "type": "address"
        },
        {
          "indexed": false,
          "internalType": "uint256",
          "name": "amount",
          "type": "uint256"
        }
      ],
      "name": "MintAndApprove",
      "type": "event"
    },
    {
      "anonymous": false,
      "inputs": [
        {
          "indexed": true,
          "internalType": "address",
          "name": "previousOwner",
          "type": "address"
        },
        {
          "indexed": true,
          "internalType": "address",
          "name": "newOwner",
          "type": "address"
        }
      ],
      "name": "OwnershipTransferred",
      "type": "event"
    },
    {
      "anonymous": false,
      "inputs": [
        {
          "indexed": true,
          "internalType": "address",
          "name": "from",
          "type": "address"
        },
        {
          "indexed": true,
          "internalType": "address",
          "name": "to",
          "type": "address"
        },
        {
          "indexed": false,
          "internalType": "uint256",
          "name": "value",
          "type": "uint256"
        }
      ],
      "name": "Transfer",
      "type": "event"
    },
    {
      "inputs": [],
      "name": "DOMAIN_SEPARATOR",
      "outputs": [
        {
          "internalType": "bytes32",
          "name": "",
          "type": "bytes32"
        }
      ],
      "stateMutability": "view",
      "type": "function"
    },
    {
      "inputs": [
        {
          "internalType": "address",
          "name": "owner",
          "type": "address"
        },
        {
          "internalType": "address",
          "name": "spender",
          "type": "address"
        }
      ],
      "name": "allowance",
      "outputs": [
        {
          "internalType": "uint256",
          "name": "",
          "type": "uint256"
        }
      ],
      "stateMutability": "view",
      "type": "function"
    },
    {
      "inputs": [
        {
          "internalType": "address",
          "name": "spender",
          "type": "address"
        },
        {
          "internalType": "uint256",
          "name": "amount",
          "type": "uint256"
        }
      ],
      "name": "approve",
      "outputs": [
        {
          "internalType": "bool",
          "name": "",
          "type": "bool"
        }
      ],
      "stateMutability": "nonpayable",
      "type": "function"
    },
    {
      "inputs": [
        {
          "internalType": "address",
          "name": "account",
          "type": "address"
        }
      ],
      "name": "balanceOf",
      "outputs": [
        {
          "internalType": "uint256",
          "name": "",
          "type": "uint256"
        }
      ],
      "stateMutability": "view",
      "type": "function"
    },
    {
      "inputs": [
        {
          "internalType": "address[]",
          "name": "toArray",
          "type": "address[]"
        },
        {
          "internalType": "uint256[]",
          "name": "amountArray",
          "type": "uint256[]"
        }
      ],
      "name": "batchMint",
      "outputs": [],
      "stateMutability": "nonpayable",
      "type": "function"
    },
    {
      "inputs": [
        {
          "internalType": "address",
          "name": "from",
          "type": "address"
        },
        {
          "internalType": "address[]",
          "name": "toArray",
          "type": "address[]"
        },
        {
          "internalType": "uint256[]",
          "name": "amountArray",
          "type": "uint256[]"
        }
      ],
      "name": "batchTransferFrom",
      "outputs": [
        {
          "internalType": "bool",
          "name": "",
          "type": "bool"
        }
      ],
      "stateMutability": "nonpayable",
      "type": "function"
    },
    {
      "inputs": [
        {
          "internalType": "address",
          "name": "account",
          "type": "address"
        },
        {
          "internalType": "uint32",
          "name": "pos",
          "type": "uint32"
        }
      ],
      "name": "checkpoints",
      "outputs": [
        {
          "components": [
            {
              "internalType": "uint32",
              "name": "fromBlock",
              "type": "uint32"
            },
            {
              "internalType": "uint224",
              "name": "votes",
              "type": "uint224"
            }
          ],
          "internalType": "struct ERC20VotesUpgradeable.Checkpoint",
          "name": "",
          "type": "tuple"
        }
      ],
      "stateMutability": "view",
      "type": "function"
    },
    {
      "inputs": [],
      "name": "decimals",
      "outputs": [
        {
          "internalType": "uint8",
          "name": "",
          "type": "uint8"
        }
      ],
      "stateMutability": "view",
      "type": "function"
    },
    {
      "inputs": [
        {
          "internalType": "address",
          "name": "spender",
          "type": "address"
        },
        {
          "internalType": "uint256",
          "name": "subtractedValue",
          "type": "uint256"
        }
      ],
      "name": "decreaseAllowance",
      "outputs": [
        {
          "internalType": "bool",
          "name": "",
          "type": "bool"
        }
      ],
      "stateMutability": "nonpayable",
      "type": "function"
    },
    {
      "inputs": [
        {
          "internalType": "address",
          "name": "delegatee",
          "type": "address"
        }
      ],
      "name": "delegate",
      "outputs": [],
      "stateMutability": "nonpayable",
      "type": "function"
    },
    {
      "inputs": [
        {
          "internalType": "address",
          "name": "delegatee",
          "type": "address"
        },
        {
          "internalType": "uint256",
          "name": "nonce",
          "type": "uint256"
        },
        {
          "internalType": "uint256",
          "name": "expiry",
          "type": "uint256"
        },
        {
          "internalType": "uint8",
          "name": "v",
          "type": "uint8"
        },
        {
          "internalType": "bytes32",
          "name": "r",
          "type": "bytes32"
        },
        {
          "internalType": "bytes32",
          "name": "s",
          "type": "bytes32"
        }
      ],
      "name": "delegateBySig",
      "outputs": [],
      "stateMutability": "nonpayable",
      "type": "function"
    },
    {
      "inputs": [
        {
          "internalType": "address",
          "name": "account",
          "type": "address"
        }
      ],
      "name": "delegates",
      "outputs": [
        {
          "internalType": "address",
          "name": "",
          "type": "address"
        }
      ],
      "stateMutability": "view",
      "type": "function"
    },
    {
      "inputs": [
        {
          "internalType": "uint256",
          "name": "blockNumber",
          "type": "uint256"
        }
      ],
      "name": "getPastTotalSupply",
      "outputs": [
        {
          "internalType": "uint256",
          "name": "",
          "type": "uint256"
        }
      ],
      "stateMutability": "view",
      "type": "function"
    },
    {
      "inputs": [
        {
          "internalType": "address",
          "name": "account",
          "type": "address"
        },
        {
          "internalType": "uint256",
          "name": "blockNumber",
          "type": "uint256"
        }
      ],
      "name": "getPastVotes",
      "outputs": [
        {
          "internalType": "uint256",
          "name": "",
          "type": "uint256"
        }
      ],
      "stateMutability": "view",
      "type": "function"
    },
    {
      "inputs": [
        {
          "internalType": "address",
          "name": "account",
          "type": "address"
        }
      ],
      "name": "getVotes",
      "outputs": [
        {
          "internalType": "uint256",
          "name": "",
          "type": "uint256"
        }
      ],
      "stateMutability": "view",
      "type": "function"
    },
    {
      "inputs": [
        {
          "internalType": "address",
          "name": "spender",
          "type": "address"
        },
        {
          "internalType": "uint256",
          "name": "addedValue",
          "type": "uint256"
        }
      ],
      "name": "increaseAllowance",
      "outputs": [
        {
          "internalType": "bool",
          "name": "",
          "type": "bool"
        }
      ],
      "stateMutability": "nonpayable",
      "type": "function"
    },
    {
      "inputs": [
        {
          "internalType": "string",
          "name": "_name",
          "type": "string"
        },
        {
          "internalType": "string",
          "name": "_symbol",
          "type": "string"
        }
      ],
      "name": "initialize",
      "outputs": [],
      "stateMutability": "nonpayable",
      "type": "function"
    },
    {
      "inputs": [
        {
          "internalType": "address",
          "name": "to",
          "type": "address"
        },
        {
          "internalType": "uint256",
          "name": "amount",
          "type": "uint256"
        }
      ],
      "name": "mint",
      "outputs": [],
      "stateMutability": "nonpayable",
      "type": "function"
    },
    {
      "inputs": [
        {
          "internalType": "address",
          "name": "spender",
          "type": "address"
        },
        {
          "internalType": "uint256",
          "name": "amount",
          "type": "uint256"
        }
      ],
      "name": "mintAndApprove",
      "outputs": [],
      "stateMutability": "nonpayable",
      "type": "function"
    },
    {
      "inputs": [],
      "name": "name",
      "outputs": [
        {
          "internalType": "string",
          "name": "",
          "type": "string"
        }
      ],
      "stateMutability": "view",
      "type": "function"
    },
    {
      "inputs": [
        {
          "internalType": "address",
          "name": "owner",
          "type": "address"
        }
      ],
      "name": "nonces",
      "outputs": [
        {
          "internalType": "uint256",
          "name": "",
          "type": "uint256"
        }
      ],
      "stateMutability": "view",
      "type": "function"
    },
    {
      "inputs": [
        {
          "internalType": "address",
          "name": "account",
          "type": "address"
        }
      ],
      "name": "numCheckpoints",
      "outputs": [
        {
          "internalType": "uint32",
          "name": "",
          "type": "uint32"
        }
      ],
      "stateMutability": "view",
      "type": "function"
    },
    {
      "inputs": [],
      "name": "owner",
      "outputs": [
        {
          "internalType": "address",
          "name": "",
          "type": "address"
        }
      ],
      "stateMutability": "view",
      "type": "function"
    },
    {
      "inputs": [
        {
          "internalType": "address",
          "name": "owner",
          "type": "address"
        },
        {
          "internalType": "address",
          "name": "spender",
          "type": "address"
        },
        {
          "internalType": "uint256",
          "name": "value",
          "type": "uint256"
        },
        {
          "internalType": "uint256",
          "name": "deadline",
          "type": "uint256"
        },
        {
          "internalType": "uint8",
          "name": "v",
          "type": "uint8"
        },
        {
          "internalType": "bytes32",
          "name": "r",
          "type": "bytes32"
        },
        {
          "internalType": "bytes32",
          "name": "s",
          "type": "bytes32"
        }
      ],
      "name": "permit",
      "outputs": [],
      "stateMutability": "nonpayable",
      "type": "function"
    },
    {
      "inputs": [],
      "name": "renounceOwnership",
      "outputs": [],
      "stateMutability": "nonpayable",
      "type": "function"
    },
    {
      "inputs": [],
      "name": "symbol",
      "outputs": [
        {
          "internalType": "string",
          "name": "",
          "type": "string"
        }
      ],
      "stateMutability": "view",
      "type": "function"
    },
    {
      "inputs": [],
      "name": "totalSupply",
      "outputs": [
        {
          "internalType": "uint256",
          "name": "",
          "type": "uint256"
        }
      ],
      "stateMutability": "view",
      "type": "function"
    },
    {
      "inputs": [
        {
          "internalType": "address",
          "name": "to",
          "type": "address"
        },
        {
          "internalType": "uint256",
          "name": "amount",
          "type": "uint256"
        }
      ],
      "name": "transfer",
      "outputs": [
        {
          "internalType": "bool",
          "name": "",
          "type": "bool"
        }
      ],
      "stateMutability": "nonpayable",
      "type": "function"
    },
    {
      "inputs": [
        {
          "internalType": "address",
          "name": "from",
          "type": "address"
        },
        {
          "internalType": "address",
          "name": "to",
          "type": "address"
        },
        {
          "internalType": "uint256",
          "name": "amount",
          "type": "uint256"
        }
      ],
      "name": "transferFrom",
      "outputs": [
        {
          "internalType": "bool",
          "name": "",
          "type": "bool"
        }
      ],
      "stateMutability": "nonpayable",
      "type": "function"
    },
    {
      "inputs": [
        {
          "internalType": "address",
          "name": "newOwner",
          "type": "address"
        }
      ],
      "name": "transferOwnership",
      "outputs": [],
      "stateMutability": "nonpayable",
      "type": "function"
    }
  ],
  "bytecode": "0x608060405234801561001057600080fd5b506129ac806100206000396000f3fe608060405234801561001057600080fd5b50600436106101da5760003560e01c80636fcfff45116101045780639ab24eb0116100a2578063d505accf11610071578063d505accf1461041e578063dd62ed3e14610431578063f1127ed814610444578063f2fde38b1461048157600080fd5b80639ab24eb0146103d2578063a457c2d7146103e5578063a9059cbb146103f8578063c3cda5201461040b57600080fd5b80637ecebe00116100de5780637ecebe00146103935780638da5cb5b146103a65780638e539e8c146103b757806395d89b41146103ca57600080fd5b80636fcfff451461033a57806370a0823114610362578063715018a61461038b57600080fd5b8063395093511161017c5780634cd88b761161014b5780634cd88b76146102bd578063587cde1e146102d05780635c19a95c14610314578063685731071461032757600080fd5b806339509351146102715780633a46b1a81461028457806340c10f19146102975780634885b254146102aa57600080fd5b806323b872dd116101b857806323b872dd1461023257806328fe694714610245578063313ce5671461025a5780633644e5151461026957600080fd5b806306fdde03146101df578063095ea7b3146101fd57806318160ddd14610220575b600080fd5b6101e7610494565b6040516101f49190612716565b60405180910390f35b61021061020b36600461257a565b610526565b60405190151581526020016101f4565b6035545b6040519081526020016101f4565b610210610240366004612458565b610540565b61025861025336600461257a565b610564565b005b604051601281526020016101f4565b6102246105c7565b61021061027f36600461257a565b6105d6565b61022461029236600461257a565b6105f8565b6102586102a536600461257a565b610677565b6102106102b83660046124fc565b61068d565b6102586102cb3660046126a1565b610864565b6102fc6102de36600461240c565b6001600160a01b03908116600090815260fe60205260409020541690565b6040516001600160a01b0390911681526020016101f4565b61025861032236600461240c565b610a69565b610258610335366004612638565b610a76565b61034d61034836600461240c565b610be9565b60405163ffffffff90911681526020016101f4565b61022461037036600461240c565b6001600160a01b031660009081526033602052604090205490565b610258610c0b565b6102246103a136600461240c565b610c1f565b6065546001600160a01b03166102fc565b6102246103c53660046126fe565b610c3d565b6101e7610c9a565b6102246103e036600461240c565b610ca9565b6102106103f336600461257a565b610d3e565b61021061040636600461257a565b610db9565b6102586104193660046125a3565b610dc7565b61025861042c366004612493565b610efd565b61022461043f366004612426565b611061565b6104576104523660046125fa565b61108c565b60408051825163ffffffff1681526020928301516001600160e01b031692810192909252016101f4565b61025861048f36600461240c565b61111e565b6060603680546104a390612910565b80601f01602080910402602001604051908101604052809291908181526020018280546104cf90612910565b801561051c5780601f106104f15761010080835404028352916020019161051c565b820191906000526020600020905b8154815290600101906020018083116104ff57829003601f168201915b5050505050905090565b600033610534818585611194565b60019150505b92915050565b60003361054e8582856112b8565b610559858585611332565b506001949350505050565b61056c611511565b610576338261156b565b610581338383611194565b604080516001600160a01b0384168152602081018390527f64ecf5ec5cc9fb3f8821fb34b6dd947677d6c8e16e6b44e01c6174ba6ece7d77910160405180910390a15050565b60006105d1611575565b905090565b6000336105348185856105e98383611061565b6105f391906127b4565b611194565b600043821061064e5760405162461bcd60e51b815260206004820152601f60248201527f4552433230566f7465733a20626c6f636b206e6f7420796574206d696e65640060448201526064015b60405180910390fd5b6001600160a01b038316600090815260ff6020526040902061067090836115f0565b9392505050565b61067f611511565b610689828261156b565b5050565b60006106a16065546001600160a01b031690565b6001600160a01b0316866001600160a01b0316146107015760405162461bcd60e51b815260206004820152601d60248201527f546f6b656e207472616e736665722066726f6d206e6f6e2d6f776e65720000006044820152606401610645565b8382146107505760405162461bcd60e51b815260206004820152601d60248201527f496e70757420617272617973206c656e677468206e6f7420657175616c0000006044820152606401610645565b6103e88411156107a25760405162461bcd60e51b815260206004820152601860248201527f41646472657373657320617272617920746f6f206c6f6e6700000000000000006044820152606401610645565b3360005b85811015610856576107df88838787858181106107d357634e487b7160e01b600052603260045260246000fd5b905060200201356112b8565b6108448888888481811061080357634e487b7160e01b600052603260045260246000fd5b9050602002016020810190610818919061240c565b87878581811061083857634e487b7160e01b600052603260045260246000fd5b90506020020135611332565b8061084e81612945565b9150506107a6565b506001979650505050505050565b600054610100900460ff16158080156108845750600054600160ff909116105b8061089e5750303b15801561089e575060005460ff166001145b6109015760405162461bcd60e51b815260206004820152602e60248201527f496e697469616c697a61626c653a20636f6e747261637420697320616c72656160448201526d191e481a5b9a5d1a585b1a5e995960921b6064820152608401610645565b6000805460ff191660011790558015610924576000805461ff0019166101001790555b61099785858080601f01602080910402602001604051908101604052809392919081815260200183838082843760009201919091525050604080516020601f890181900481028201810190925287815292508791508690819084018382808284376000920191909152506116c992505050565b61099f6116fa565b6109de85858080601f01602080910402602001604051908101604052809392919081815260200183838082843760009201919091525061172992505050565b6109e6611773565b610a1c7380aa3b720539037587a21bab2b8425911d1445f1610a0a6012600a61282f565b610a1790627a12006128da565b61156b565b8015610a62576000805461ff0019169055604051600181527f7f26b83ff96e1f2b6a682f133852f6798a09c465da95921460cefb38474024989060200160405180910390a15b5050505050565b610a73338261179a565b50565b610a7e611511565b828114610acd5760405162461bcd60e51b815260206004820152601d60248201527f496e70757420617272617973206c656e677468206e6f7420657175616c0000006044820152606401610645565b6001831015610b1e5760405162461bcd60e51b815260206004820152601f60248201527f496e70757420617272617973206c656e677468206c657373207468616e2031006044820152606401610645565b6103e8831115610b685760405162461bcd60e51b8152602060048201526015602482015274496e7075742061727261797320746f6f206c6f6e6760581b6044820152606401610645565b60005b83811015610a6257610bd7858583818110610b9657634e487b7160e01b600052603260045260246000fd5b9050602002016020810190610bab919061240c565b848484818110610bcb57634e487b7160e01b600052603260045260246000fd5b9050602002013561156b565b80610be181612945565b915050610b6b565b6001600160a01b038116600090815260ff602052604081205461053a90611814565b610c13611511565b610c1d600061187d565b565b6001600160a01b038116600090815260cb602052604081205461053a565b6000438210610c8e5760405162461bcd60e51b815260206004820152601f60248201527f4552433230566f7465733a20626c6f636b206e6f7420796574206d696e6564006044820152606401610645565b61053a610100836115f0565b6060603780546104a390612910565b6001600160a01b038116600090815260ff60205260408120548015610d2b576001600160a01b038316600090815260ff60205260409020610ceb6001836128f9565b81548110610d0957634e487b7160e01b600052603260045260246000fd5b60009182526020909120015464010000000090046001600160e01b0316610d2e565b60005b6001600160e01b03169392505050565b60003381610d4c8286611061565b905083811015610dac5760405162461bcd60e51b815260206004820152602560248201527f45524332303a2064656372656173656420616c6c6f77616e63652062656c6f77604482015264207a65726f60d81b6064820152608401610645565b6105598286868403611194565b600033610534818585611332565b83421115610e175760405162461bcd60e51b815260206004820152601d60248201527f4552433230566f7465733a207369676e617475726520657870697265640000006044820152606401610645565b604080517fe48329057bfd03d55e49b547132e39cffd9c1820ad7b9d4c5307691425d15adf60208201526001600160a01b038816918101919091526060810186905260808101859052600090610e9190610e899060a001604051602081830303815290604052805190602001206118cf565b85858561191d565b9050610e9c81611945565b8614610eea5760405162461bcd60e51b815260206004820152601960248201527f4552433230566f7465733a20696e76616c6964206e6f6e6365000000000000006044820152606401610645565b610ef4818861179a565b50505050505050565b83421115610f4d5760405162461bcd60e51b815260206004820152601d60248201527f45524332305065726d69743a206578706972656420646561646c696e650000006044820152606401610645565b60007f6e71edae12b1b97f4d1f60370fef10105fa2faae0126114a169c64845d6126c9888888610f7c8c611945565b6040805160208101969096526001600160a01b0394851690860152929091166060840152608083015260a082015260c0810186905260e0016040516020818303038152906040528051906020012090506000610fd7826118cf565b90506000610fe78287878761191d565b9050896001600160a01b0316816001600160a01b03161461104a5760405162461bcd60e51b815260206004820152601e60248201527f45524332305065726d69743a20696e76616c6964207369676e617475726500006044820152606401610645565b6110558a8a8a611194565b50505050505050505050565b6001600160a01b03918216600090815260346020908152604080832093909416825291909152205490565b60408051808201909152600080825260208201526001600160a01b038316600090815260ff60205260409020805463ffffffff84169081106110de57634e487b7160e01b600052603260045260246000fd5b60009182526020918290206040805180820190915291015463ffffffff8116825264010000000090046001600160e01b0316918101919091529392505050565b611126611511565b6001600160a01b03811661118b5760405162461bcd60e51b815260206004820152602660248201527f4f776e61626c653a206e6577206f776e657220697320746865207a65726f206160448201526564647265737360d01b6064820152608401610645565b610a738161187d565b6001600160a01b0383166111f65760405162461bcd60e51b8152602060048201526024808201527f45524332303a20617070726f76652066726f6d20746865207a65726f206164646044820152637265737360e01b6064820152608401610645565b6001600160a01b0382166112575760405162461bcd60e51b815260206004820152602260248201527f45524332303a20617070726f766520746f20746865207a65726f206164647265604482015261737360f01b6064820152608401610645565b6001600160a01b0383811660008181526034602090815260408083209487168084529482529182902085905590518481527f8c5be1e5ebec7d5bd14f71427d1e84f3dd0314c0f7b2291e5b200ac8c7c3b925910160405180910390a3505050565b60006112c48484611061565b9050600019811461132c578181101561131f5760405162461bcd60e51b815260206004820152601d60248201527f45524332303a20696e73756666696369656e7420616c6c6f77616e63650000006044820152606401610645565b61132c8484848403611194565b50505050565b6001600160a01b0383166113965760405162461bcd60e51b815260206004820152602560248201527f45524332303a207472616e736665722066726f6d20746865207a65726f206164604482015264647265737360d81b6064820152608401610645565b6001600160a01b0382166113f85760405162461bcd60e51b815260206004820152602360248201527f45524332303a207472616e7366657220746f20746865207a65726f206164647260448201526265737360e81b6064820152608401610645565b61140383838361196d565b6001600160a01b0383166000908152603360205260409020548181101561147b5760405162461bcd60e51b815260206004820152602660248201527f45524332303a207472616e7366657220616d6f756e7420657863656564732062604482015265616c616e636560d01b6064820152608401610645565b6001600160a01b038085166000908152603360205260408082208585039055918516815290812080548492906114b29084906127b4565b92505081905550826001600160a01b0316846001600160a01b03167fddf252ad1be2c89b69c2b068fc378daa952ba7f163c4a11628f55a4df523b3ef846040516114fe91815260200190565b60405180910390a361132c8484846119e1565b6065546001600160a01b03163314610c1d5760405162461bcd60e51b815260206004820181905260248201527f4f776e61626c653a2063616c6c6572206973206e6f7420746865206f776e65726044820152606401610645565b61068982826119ec565b60006105d17f8b73c3c69bb8fe3d512ecc4cf759cc79239f7b179b0ffacaa9a75d522b39400f6115a460975490565b6098546040805160208101859052908101839052606081018290524660808201523060a082015260009060c0016040516020818303038152906040528051906020012090509392505050565b8154600090815b8181101561166257600061160b8284611a77565b90508486828154811061162e57634e487b7160e01b600052603260045260246000fd5b60009182526020909120015463ffffffff16111561164e5780925061165c565b6116598160016127b4565b91505b506115f7565b81156116b457846116746001846128f9565b8154811061169257634e487b7160e01b600052603260045260246000fd5b60009182526020909120015464010000000090046001600160e01b03166116b7565b60005b6001600160e01b031695945050505050565b600054610100900460ff166116f05760405162461bcd60e51b815260040161064590612769565b6106898282611a92565b600054610100900460ff166117215760405162461bcd60e51b815260040161064590612769565b610c1d611ae0565b600054610100900460ff166117505760405162461bcd60e51b815260040161064590612769565b610a7381604051806040016040528060018152602001603160f81b815250611b10565b600054610100900460ff16610c1d5760405162461bcd60e51b815260040161064590612769565b6001600160a01b03828116600081815260fe6020818152604080842080546033845282862054949093528787166001600160a01b03198416811790915590519190951694919391928592917f3134e8a2e6d97e929a7e54011ea5485d7d196dd5f0ba4d4ef95803e8e3fc257f9190a461132c828483611b51565b600063ffffffff8211156118795760405162461bcd60e51b815260206004820152602660248201527f53616665436173743a2076616c756520646f65736e27742066697420696e203360448201526532206269747360d01b6064820152608401610645565b5090565b606580546001600160a01b038381166001600160a01b0319831681179093556040519116919082907f8be0079c531659141344cd1fd0a4f28419497f9722a3daafe3b4186f6b6457e090600090a35050565b600061053a6118dc611575565b8360405161190160f01b6020820152602281018390526042810182905260009060620160405160208183030381529060405280519060200120905092915050565b600080600061192e87878787611c8e565b9150915061193b81611d7b565b5095945050505050565b6001600160a01b038116600090815260cb602052604090208054600181018255905b50919050565b6065546001600160a01b038481169116148061199057506001600160a01b038316155b6119dc5760405162461bcd60e51b815260206004820152601d60248201527f546f6b656e207472616e736665722066726f6d206e6f6e2d6f776e65720000006044820152606401610645565b505050565b6119dc838383611f7c565b6119f68282611fae565b6035546001600160e01b031015611a685760405162461bcd60e51b815260206004820152603060248201527f4552433230566f7465733a20746f74616c20737570706c79207269736b73206f60448201526f766572666c6f77696e6720766f74657360801b6064820152608401610645565b61132c6101006120a1836120ad565b6000611a8660028484186127cc565b610670908484166127b4565b600054610100900460ff16611ab95760405162461bcd60e51b815260040161064590612769565b8151611acc9060369060208501906122c5565b5080516119dc9060379060208401906122c5565b600054610100900460ff16611b075760405162461bcd60e51b815260040161064590612769565b610c1d3361187d565b600054610100900460ff16611b375760405162461bcd60e51b815260040161064590612769565b815160209283012081519190920120609791909155609855565b816001600160a01b0316836001600160a01b031614158015611b735750600081115b156119dc576001600160a01b03831615611c01576001600160a01b038316600090815260ff602052604081208190611bae90612250856120ad565b91509150846001600160a01b03167fdec2bacdd2f05b59de34da9b523dff8be42e5e38e818c82fdb0bae774387a7248383604051611bf6929190918252602082015260400190565b60405180910390a250505b6001600160a01b038216156119dc576001600160a01b038216600090815260ff602052604081208190611c37906120a1856120ad565b91509150836001600160a01b03167fdec2bacdd2f05b59de34da9b523dff8be42e5e38e818c82fdb0bae774387a7248383604051611c7f929190918252602082015260400190565b60405180910390a25050505050565b6000807f7fffffffffffffffffffffffffffffff5d576e7357a4501ddfe92f46681b20a0831115611cc55750600090506003611d72565b8460ff16601b14158015611cdd57508460ff16601c14155b15611cee5750600090506004611d72565b6040805160008082526020820180845289905260ff881692820192909252606081018690526080810185905260019060a0016020604051602081039080840390855afa158015611d42573d6000803e3d6000fd5b5050604051601f1901519150506001600160a01b038116611d6b57600060019250925050611d72565b9150600090505b94509492505050565b6000816004811115611d9d57634e487b7160e01b600052602160045260246000fd5b1415611da65750565b6001816004811115611dc857634e487b7160e01b600052602160045260246000fd5b1415611e165760405162461bcd60e51b815260206004820152601860248201527f45434453413a20696e76616c6964207369676e617475726500000000000000006044820152606401610645565b6002816004811115611e3857634e487b7160e01b600052602160045260246000fd5b1415611e865760405162461bcd60e51b815260206004820152601f60248201527f45434453413a20696e76616c6964207369676e6174757265206c656e677468006044820152606401610645565b6003816004811115611ea857634e487b7160e01b600052602160045260246000fd5b1415611f015760405162461bcd60e51b815260206004820152602260248201527f45434453413a20696e76616c6964207369676e6174757265202773272076616c604482015261756560f01b6064820152608401610645565b6004816004811115611f2357634e487b7160e01b600052602160045260246000fd5b1415610a735760405162461bcd60e51b815260206004820152602260248201527f45434453413a20696e76616c6964207369676e6174757265202776272076616c604482015261756560f01b6064820152608401610645565b6001600160a01b03838116600090815260fe60205260408082205485841683529120546119dc92918216911683611b51565b6001600160a01b0382166120045760405162461bcd60e51b815260206004820152601f60248201527f45524332303a206d696e7420746f20746865207a65726f2061646472657373006044820152606401610645565b6120106000838361196d565b806035600082825461202291906127b4565b90915550506001600160a01b0382166000908152603360205260408120805483929061204f9084906127b4565b90915550506040518181526001600160a01b038316906000907fddf252ad1be2c89b69c2b068fc378daa952ba7f163c4a11628f55a4df523b3ef9060200160405180910390a3610689600083836119e1565b600061067082846127b4565b82546000908190801561210657856120c66001836128f9565b815481106120e457634e487b7160e01b600052603260045260246000fd5b60009182526020909120015464010000000090046001600160e01b0316612109565b60005b6001600160e01b0316925061212283858763ffffffff16565b915060008111801561216e5750438661213c6001846128f9565b8154811061215a57634e487b7160e01b600052603260045260246000fd5b60009182526020909120015463ffffffff16145b156121dc5761217c8261225c565b866121886001846128f9565b815481106121a657634e487b7160e01b600052603260045260246000fd5b9060005260206000200160000160046101000a8154816001600160e01b0302191690836001600160e01b03160217905550612247565b8560405180604001604052806121f143611814565b63ffffffff1681526020016122058561225c565b6001600160e01b0390811690915282546001810184556000938452602093849020835194909301519091166401000000000263ffffffff909316929092179101555b50935093915050565b600061067082846128f9565b60006001600160e01b038211156118795760405162461bcd60e51b815260206004820152602760248201527f53616665436173743a2076616c756520646f65736e27742066697420696e20326044820152663234206269747360c81b6064820152608401610645565b8280546122d190612910565b90600052602060002090601f0160209004810192826122f35760008555612339565b82601f1061230c57805160ff1916838001178555612339565b82800160010185558215612339579182015b8281111561233957825182559160200191906001019061231e565b506118799291505b808211156118795760008155600101612341565b80356001600160a01b038116811461236c57600080fd5b919050565b60008083601f840112612382578182fd5b50813567ffffffffffffffff811115612399578182fd5b6020830191508360208260051b85010111156123b457600080fd5b9250929050565b60008083601f8401126123cc578182fd5b50813567ffffffffffffffff8111156123e3578182fd5b6020830191508360208285010111156123b457600080fd5b803560ff8116811461236c57600080fd5b60006020828403121561241d578081fd5b61067082612355565b60008060408385031215612438578081fd5b61244183612355565b915061244f60208401612355565b90509250929050565b60008060006060848603121561246c578081fd5b61247584612355565b925061248360208501612355565b9150604084013590509250925092565b600080600080600080600060e0888a0312156124ad578283fd5b6124b688612355565b96506124c460208901612355565b955060408801359450606088013593506124e0608089016123fb565b925060a0880135915060c0880135905092959891949750929550565b600080600080600060608688031215612513578081fd5b61251c86612355565b9450602086013567ffffffffffffffff80821115612538578283fd5b61254489838a01612371565b9096509450604088013591508082111561255c578283fd5b5061256988828901612371565b969995985093965092949392505050565b6000806040838503121561258c578182fd5b61259583612355565b946020939093013593505050565b60008060008060008060c087890312156125bb578182fd5b6125c487612355565b955060208701359450604087013593506125e0606088016123fb565b92506080870135915060a087013590509295509295509295565b6000806040838503121561260c578182fd5b61261583612355565b9150602083013563ffffffff8116811461262d578182fd5b809150509250929050565b6000806000806040858703121561264d578384fd5b843567ffffffffffffffff80821115612664578586fd5b61267088838901612371565b90965094506020870135915080821115612688578384fd5b5061269587828801612371565b95989497509550505050565b600080600080604085870312156126b6578384fd5b843567ffffffffffffffff808211156126cd578586fd5b6126d9888389016123bb565b909650945060208701359150808211156126f1578384fd5b50612695878288016123bb565b60006020828403121561270f578081fd5b5035919050565b6000602080835283518082850152825b8181101561274257858101830151858201604001528201612726565b818111156127535783604083870101525b50601f01601f1916929092016040019392505050565b6020808252602b908201527f496e697469616c697a61626c653a20636f6e7472616374206973206e6f74206960408201526a6e697469616c697a696e6760a81b606082015260800190565b600082198211156127c7576127c7612960565b500190565b6000826127e757634e487b7160e01b81526012600452602481fd5b500490565b600181815b8085111561282757816000190482111561280d5761280d612960565b8085161561281a57918102915b93841c93908002906127f1565b509250929050565b600061067060ff8416836000826128485750600161053a565b816128555750600061053a565b816001811461286b576002811461287557612891565b600191505061053a565b60ff84111561288657612886612960565b50506001821b61053a565b5060208310610133831016604e8410600b84101617156128b4575081810a61053a565b6128be83836127ec565b80600019048211156128d2576128d2612960565b029392505050565b60008160001904831182151516156128f4576128f4612960565b500290565b60008282101561290b5761290b612960565b500390565b600181811c9082168061292457607f821691505b6020821081141561196757634e487b7160e01b600052602260045260246000fd5b600060001982141561295957612959612960565b5060010190565b634e487b7160e01b600052601160045260246000fdfea2646970667358221220f3f7a8847d7ede46b6dc6ffbc6ab2c6e2a416ad204597ab7a39647a8bd146c8564736f6c63430008040033",
  "linkReferences": {},
  "deployedLinkReferences": {}
}